{
  "_format": "hh-sol-artifact-1",
  "contractName": "Library",
  "sourceName": "contracts/Library.sol",
  "abi": [
    {
      "anonymous": false,
      "inputs": [
        {
          "indexed": true,
          "internalType": "address",
          "name": "previousOwner",
          "type": "address"
        },
        {
          "indexed": true,
          "internalType": "address",
          "name": "newOwner",
          "type": "address"
        }
      ],
      "name": "OwnershipTransferred",
      "type": "event"
    },
    {
      "anonymous": false,
      "inputs": [
        {
          "indexed": false,
          "internalType": "address",
          "name": "borrower",
          "type": "address"
        },
        {
          "indexed": false,
          "internalType": "uint256",
          "name": "bookId",
          "type": "uint256"
        }
      ],
      "name": "bookBorrowed",
      "type": "event"
    },
    {
      "anonymous": false,
      "inputs": [
        {
          "indexed": false,
          "internalType": "address",
          "name": "giver",
          "type": "address"
        },
        {
          "indexed": false,
          "internalType": "uint256",
          "name": "bookId",
          "type": "uint256"
        }
      ],
      "name": "bookReturned",
      "type": "event"
    },
    {
      "inputs": [
        {
          "internalType": "address",
          "name": "",
          "type": "address"
        },
        {
          "internalType": "uint256",
          "name": "",
          "type": "uint256"
        }
      ],
      "name": "NotTaken",
      "outputs": [
        {
          "internalType": "bool",
          "name": "",
          "type": "bool"
        }
      ],
      "stateMutability": "view",
      "type": "function"
    },
    {
      "inputs": [
        {
          "internalType": "uint256",
          "name": "_id",
          "type": "uint256"
        },
        {
          "internalType": "string",
          "name": "_titile",
          "type": "string"
        },
        {
          "internalType": "string",
          "name": "_author",
          "type": "string"
        },
        {
          "internalType": "uint256",
          "name": "_copies",
          "type": "uint256"
        }
      ],
      "name": "addBook",
      "outputs": [],
      "stateMutability": "nonpayable",
      "type": "function"
    },
    {
      "inputs": [
        {
          "internalType": "uint256",
          "name": "",
          "type": "uint256"
        }
      ],
      "name": "books",
      "outputs": [
        {
          "internalType": "uint256",
          "name": "id",
          "type": "uint256"
        },
        {
          "internalType": "string",
          "name": "title",
          "type": "string"
        },
        {
          "internalType": "string",
          "name": "author",
          "type": "string"
        },
        {
          "internalType": "uint256",
          "name": "copies",
          "type": "uint256"
        }
      ],
      "stateMutability": "view",
      "type": "function"
    },
    {
      "inputs": [
        {
          "internalType": "uint256",
          "name": "_id",
          "type": "uint256"
        }
      ],
      "name": "borrow",
      "outputs": [],
      "stateMutability": "nonpayable",
      "type": "function"
    },
    {
      "inputs": [
        {
          "internalType": "uint256",
          "name": "",
          "type": "uint256"
        }
      ],
      "name": "borrowers",
      "outputs": [
        {
          "internalType": "address",
          "name": "",
          "type": "address"
        }
      ],
      "stateMutability": "view",
      "type": "function"
    },
    {
      "inputs": [],
      "name": "borrowersView",
      "outputs": [
        {
          "internalType": "address[]",
          "name": "",
          "type": "address[]"
        }
      ],
      "stateMutability": "view",
      "type": "function"
    },
    {
      "inputs": [],
      "name": "owner",
      "outputs": [
        {
          "internalType": "address",
          "name": "",
          "type": "address"
        }
      ],
      "stateMutability": "view",
      "type": "function"
    },
    {
      "inputs": [],
      "name": "renounceOwnership",
      "outputs": [],
      "stateMutability": "nonpayable",
      "type": "function"
    },
    {
      "inputs": [
        {
          "internalType": "uint256",
          "name": "_id",
          "type": "uint256"
        }
      ],
      "name": "retrun",
      "outputs": [],
      "stateMutability": "nonpayable",
      "type": "function"
    },
    {
      "inputs": [
        {
          "internalType": "address",
          "name": "newOwner",
          "type": "address"
        }
      ],
      "name": "transferOwnership",
      "outputs": [],
      "stateMutability": "nonpayable",
      "type": "function"
    }
  ],
  "bytecode": "0x608060405234801561001057600080fd5b5061002d61002261003260201b60201c565b61003a60201b60201c565b6100fe565b600033905090565b60008060009054906101000a900473ffffffffffffffffffffffffffffffffffffffff169050816000806101000a81548173ffffffffffffffffffffffffffffffffffffffff021916908373ffffffffffffffffffffffffffffffffffffffff1602179055508173ffffffffffffffffffffffffffffffffffffffff168173ffffffffffffffffffffffffffffffffffffffff167f8be0079c531659141344cd1fd0a4f28419497f9722a3daafe3b4186f6b6457e060405160405180910390a35050565b6114d48061010d6000396000f3fe608060405234801561001057600080fd5b506004361061009e5760003560e01c80638da5cb5b116100665780638da5cb5b14610148578063bc6e094614610166578063c5ebeaec14610196578063cb33f09b146101b2578063f2fde38b146101d05761009e565b806310c24a61146100a357806368744046146100bf578063715018a6146100f25780637924d93f146100fc578063801697781461012c575b600080fd5b6100bd60048036038101906100b89190610d0d565b6101ec565b005b6100d960048036038101906100d49190610ce4565b6102f3565b6040516100e9949392919061105b565b60405180910390f35b6100fa610433565b005b61011660048036038101906101119190610ce4565b6104bb565b6040516101239190610f3a565b60405180910390f35b61014660048036038101906101419190610ce4565b6104fa565b005b61015061066f565b60405161015d9190610f3a565b60405180910390f35b610180600480360381019061017b9190610ca8565b610698565b60405161018d9190610fa0565b60405180910390f35b6101b060048036038101906101ab9190610ce4565b6106c7565b005b6101ba6108f8565b6040516101c79190610f7e565b60405180910390f35b6101ea60048036038101906101e59190610c7f565b610986565b005b6101f4610a7e565b73ffffffffffffffffffffffffffffffffffffffff1661021261066f565b73ffffffffffffffffffffffffffffffffffffffff1614610268576040517f08c379a000000000000000000000000000000000000000000000000000000000815260040161025f9061103b565b60405180910390fd5b604051806080016040528085815260200184815260200183815260200182815250600260008681526020019081526020016000206000820151816000015560208201518160010190805190602001906102c2929190610b4a565b5060408201518160020190805190602001906102df929190610b4a565b506060820151816003015590505050505050565b600260205280600052604060002060009150905080600001549080600101805461031c9061120d565b80601f01602080910402602001604051908101604052809291908181526020018280546103489061120d565b80156103955780601f1061036a57610100808354040283529160200191610395565b820191906000526020600020905b81548152906001019060200180831161037857829003601f168201915b5050505050908060020180546103aa9061120d565b80601f01602080910402602001604051908101604052809291908181526020018280546103d69061120d565b80156104235780601f106103f857610100808354040283529160200191610423565b820191906000526020600020905b81548152906001019060200180831161040657829003601f168201915b5050505050908060030154905084565b61043b610a7e565b73ffffffffffffffffffffffffffffffffffffffff1661045961066f565b73ffffffffffffffffffffffffffffffffffffffff16146104af576040517f08c379a00000000000000000000000000000000000000000000000000000000081526004016104a69061103b565b60405180910390fd5b6104b96000610a86565b565b600181815481106104cb57600080fd5b906000526020600020016000915054906101000a900473ffffffffffffffffffffffffffffffffffffffff1681565b60011515600360003373ffffffffffffffffffffffffffffffffffffffff1673ffffffffffffffffffffffffffffffffffffffff168152602001908152602001600020600083815260200190815260200160002060009054906101000a900460ff1615151461059e576040517f08c379a000000000000000000000000000000000000000000000000000000000815260040161059590610fbb565b60405180910390fd5b6002600082815260200190815260200160002060030160008154809291906105c590611270565b91905055506000600360003373ffffffffffffffffffffffffffffffffffffffff1673ffffffffffffffffffffffffffffffffffffffff168152602001908152602001600020600083815260200190815260200160002060006101000a81548160ff0219169083151502179055507fbbab87c695fff7c1e615b3bbd9c293ca0151241ae23d6aded792820ebfb82b2b3382604051610664929190610f55565b60405180910390a150565b60008060009054906101000a900473ffffffffffffffffffffffffffffffffffffffff16905090565b60036020528160005260406000206020528060005260406000206000915091509054906101000a900460ff1681565b60001515600360003373ffffffffffffffffffffffffffffffffffffffff1673ffffffffffffffffffffffffffffffffffffffff168152602001908152602001600020600083815260200190815260200160002060009054906101000a900460ff1615151461076b576040517f08c379a00000000000000000000000000000000000000000000000000000000081526004016107629061101b565b60405180910390fd5b60006002600083815260200190815260200160002060030154116107c4576040517f08c379a00000000000000000000000000000000000000000000000000000000081526004016107bb90610ffb565b60405180910390fd5b6002600082815260200190815260200160002060030160008154809291906107eb906111e3565b91905055506001600360003373ffffffffffffffffffffffffffffffffffffffff1673ffffffffffffffffffffffffffffffffffffffff168152602001908152602001600020600083815260200190815260200160002060006101000a81548160ff0219169083151502179055506001339080600181540180825580915050600190039060005260206000200160009091909190916101000a81548173ffffffffffffffffffffffffffffffffffffffff021916908373ffffffffffffffffffffffffffffffffffffffff1602179055507fa72a25288e5e7c2bef56ad47aa60fb25f4da2948f9b3fa603c97dc4cfc8fe1b833826040516108ed929190610f55565b60405180910390a150565b6060600180548060200260200160405190810160405280929190818152602001828054801561097c57602002820191906000526020600020905b8160009054906101000a900473ffffffffffffffffffffffffffffffffffffffff1673ffffffffffffffffffffffffffffffffffffffff1681526020019060010190808311610932575b5050505050905090565b61098e610a7e565b73ffffffffffffffffffffffffffffffffffffffff166109ac61066f565b73ffffffffffffffffffffffffffffffffffffffff1614610a02576040517f08c379a00000000000000000000000000000000000000000000000000000000081526004016109f99061103b565b60405180910390fd5b600073ffffffffffffffffffffffffffffffffffffffff168173ffffffffffffffffffffffffffffffffffffffff161415610a72576040517f08c379a0000000000000000000000000000000000000000000000000000000008152600401610a6990610fdb565b60405180910390fd5b610a7b81610a86565b50565b600033905090565b60008060009054906101000a900473ffffffffffffffffffffffffffffffffffffffff169050816000806101000a81548173ffffffffffffffffffffffffffffffffffffffff021916908373ffffffffffffffffffffffffffffffffffffffff1602179055508173ffffffffffffffffffffffffffffffffffffffff168173ffffffffffffffffffffffffffffffffffffffff167f8be0079c531659141344cd1fd0a4f28419497f9722a3daafe3b4186f6b6457e060405160405180910390a35050565b828054610b569061120d565b90600052602060002090601f016020900481019282610b785760008555610bbf565b82601f10610b9157805160ff1916838001178555610bbf565b82800160010185558215610bbf579182015b82811115610bbe578251825591602001919060010190610ba3565b5b509050610bcc9190610bd0565b5090565b5b80821115610be9576000816000905550600101610bd1565b5090565b6000610c00610bfb846110d3565b6110ae565b905082815260208101848484011115610c1857600080fd5b610c238482856111a1565b509392505050565b600081359050610c3a81611470565b92915050565b600082601f830112610c5157600080fd5b8135610c61848260208601610bed565b91505092915050565b600081359050610c7981611487565b92915050565b600060208284031215610c9157600080fd5b6000610c9f84828501610c2b565b91505092915050565b60008060408385031215610cbb57600080fd5b6000610cc985828601610c2b565b9250506020610cda85828601610c6a565b9150509250929050565b600060208284031215610cf657600080fd5b6000610d0484828501610c6a565b91505092915050565b60008060008060808587031215610d2357600080fd5b6000610d3187828801610c6a565b945050602085013567ffffffffffffffff811115610d4e57600080fd5b610d5a87828801610c40565b935050604085013567ffffffffffffffff811115610d7757600080fd5b610d8387828801610c40565b9250506060610d9487828801610c6a565b91505092959194509250565b6000610dac8383610db8565b60208301905092915050565b610dc181611159565b82525050565b610dd081611159565b82525050565b6000610de182611114565b610deb8185611137565b9350610df683611104565b8060005b83811015610e27578151610e0e8882610da0565b9750610e198361112a565b925050600181019050610dfa565b5085935050505092915050565b610e3d8161116b565b82525050565b6000610e4e8261111f565b610e588185611148565b9350610e688185602086016111b0565b610e7181611346565b840191505092915050565b6000610e89601e83611148565b9150610e9482611357565b602082019050919050565b6000610eac602683611148565b9150610eb782611380565b604082019050919050565b6000610ecf601383611148565b9150610eda826113cf565b602082019050919050565b6000610ef2602283611148565b9150610efd826113f8565b604082019050919050565b6000610f15602083611148565b9150610f2082611447565b602082019050919050565b610f3481611197565b82525050565b6000602082019050610f4f6000830184610dc7565b92915050565b6000604082019050610f6a6000830185610dc7565b610f776020830184610f2b565b9392505050565b60006020820190508181036000830152610f988184610dd6565b905092915050565b6000602082019050610fb56000830184610e34565b92915050565b60006020820190508181036000830152610fd481610e7c565b9050919050565b60006020820190508181036000830152610ff481610e9f565b9050919050565b6000602082019050818103600083015261101481610ec2565b9050919050565b6000602082019050818103600083015261103481610ee5565b9050919050565b6000602082019050818103600083015261105481610f08565b9050919050565b60006080820190506110706000830187610f2b565b81810360208301526110828186610e43565b905081810360408301526110968185610e43565b90506110a56060830184610f2b565b95945050505050565b60006110b86110c9565b90506110c4828261123f565b919050565b6000604051905090565b600067ffffffffffffffff8211156110ee576110ed611317565b5b6110f782611346565b9050602081019050919050565b6000819050602082019050919050565b600081519050919050565b600081519050919050565b6000602082019050919050565b600082825260208201905092915050565b600082825260208201905092915050565b600061116482611177565b9050919050565b60008115159050919050565b600073ffffffffffffffffffffffffffffffffffffffff82169050919050565b6000819050919050565b82818337600083830152505050565b60005b838110156111ce5780820151818401526020810190506111b3565b838111156111dd576000848401525b50505050565b60006111ee82611197565b91506000821415611202576112016112b9565b5b600182039050919050565b6000600282049050600182168061122557607f821691505b60208210811415611239576112386112e8565b5b50919050565b61124882611346565b810181811067ffffffffffffffff8211171561126757611266611317565b5b80604052505050565b600061127b82611197565b91507fffffffffffffffffffffffffffffffffffffffffffffffffffffffffffffffff8214156112ae576112ad6112b9565b5b600182019050919050565b7f4e487b7100000000000000000000000000000000000000000000000000000000600052601160045260246000fd5b7f4e487b7100000000000000000000000000000000000000000000000000000000600052602260045260246000fd5b7f4e487b7100000000000000000000000000000000000000000000000000000000600052604160045260246000fd5b6000601f19601f8301169050919050565b7f546865207573657220686173206e6f7468696e6720746f2072657475726e0000600082015250565b7f4f776e61626c653a206e6577206f776e657220697320746865207a65726f206160008201527f6464726573730000000000000000000000000000000000000000000000000000602082015250565b7f4e6f20617661696c61626c6520636f7069657300000000000000000000000000600082015250565b7f54686520757365722068617320616c726561647920626f72726f77206120626f60008201527f6f6b000000000000000000000000000000000000000000000000000000000000602082015250565b7f4f776e61626c653a2063616c6c6572206973206e6f7420746865206f776e6572600082015250565b61147981611159565b811461148457600080fd5b50565b61149081611197565b811461149b57600080fd5b5056fea264697066735822122040ae28b029c20e2202cef0a61bcee148bb2ba144ed3001d26d4df8108d45362664736f6c63430008040033",
  "linkReferences": {},
  "deployedLinkReferences": {}
}