{
    "_format": "hh-sol-artifact-1",
    "contractName": "USElection",
    "sourceName": "contracts/USElection.sol",
    "abi": [
        {
            "anonymous": false,
            "inputs": [
                {
                    "indexed": false,
                    "internalType": "uint256",
                    "name": "winner",
                    "type": "uint256"
                }
            ],
            "name": "LogElectionEnded",
            "type": "event"
        },
        {
            "anonymous": false,
            "inputs": [
                {
                    "indexed": false,
                    "internalType": "uint8",
                    "name": "winner",
                    "type": "uint8"
                },
                {
                    "indexed": false,
                    "internalType": "uint8",
                    "name": "stateSeats",
                    "type": "uint8"
                },
                {
                    "indexed": false,
                    "internalType": "string",
                    "name": "state",
                    "type": "string"
                }
            ],
            "name": "LogStateResult",
            "type": "event"
        },
        {
            "anonymous": false,
            "inputs": [
                {
                    "indexed": true,
                    "internalType": "address",
                    "name": "previousOwner",
                    "type": "address"
                },
                {
                    "indexed": true,
                    "internalType": "address",
                    "name": "newOwner",
                    "type": "address"
                }
            ],
            "name": "OwnershipTransferred",
            "type": "event"
        },
        {
            "inputs": [],
            "name": "BIDEN",
            "outputs": [
                {
                    "internalType": "uint8",
                    "name": "",
                    "type": "uint8"
                }
            ],
            "stateMutability": "view",
            "type": "function"
        },
        {
            "inputs": [],
            "name": "TRUMP",
            "outputs": [
                {
                    "internalType": "uint8",
                    "name": "",
                    "type": "uint8"
                }
            ],
            "stateMutability": "view",
            "type": "function"
        },
        {
            "inputs": [],
            "name": "currentLeader",
            "outputs": [
                {
                    "internalType": "uint8",
                    "name": "",
                    "type": "uint8"
                }
            ],
            "stateMutability": "view",
            "type": "function"
        },
        {
            "inputs": [],
            "name": "electionEnded",
            "outputs": [
                {
                    "internalType": "bool",
                    "name": "",
                    "type": "bool"
                }
            ],
            "stateMutability": "view",
            "type": "function"
        },
        {
            "inputs": [],
            "name": "endElection",
            "outputs": [],
            "stateMutability": "nonpayable",
            "type": "function"
        },
        {
            "inputs": [],
            "name": "owner",
            "outputs": [
                {
                    "internalType": "address",
                    "name": "",
                    "type": "address"
                }
            ],
            "stateMutability": "view",
            "type": "function"
        },
        {
            "inputs": [],
            "name": "renounceOwnership",
            "outputs": [],
            "stateMutability": "nonpayable",
            "type": "function"
        },
        {
            "inputs": [
                {
                    "internalType": "string",
                    "name": "",
                    "type": "string"
                }
            ],
            "name": "resultsSubmitted",
            "outputs": [
                {
                    "internalType": "bool",
                    "name": "",
                    "type": "bool"
                }
            ],
            "stateMutability": "view",
            "type": "function"
        },
        {
            "inputs": [
                {
                    "internalType": "uint8",
                    "name": "",
                    "type": "uint8"
                }
            ],
            "name": "seats",
            "outputs": [
                {
                    "internalType": "uint8",
                    "name": "",
                    "type": "uint8"
                }
            ],
            "stateMutability": "view",
            "type": "function"
        },
        {
            "inputs": [
                {
                    "components": [
                        {
                            "internalType": "string",
                            "name": "name",
                            "type": "string"
                        },
                        {
                            "internalType": "uint256",
                            "name": "votesBiden",
                            "type": "uint256"
                        },
                        {
                            "internalType": "uint256",
                            "name": "votesTrump",
                            "type": "uint256"
                        },
                        {
                            "internalType": "uint8",
                            "name": "stateSeats",
                            "type": "uint8"
                        }
                    ],
                    "internalType": "struct USElection.StateResult",
                    "name": "result",
                    "type": "tuple"
                }
            ],
            "name": "submitStateResult",
            "outputs": [],
            "stateMutability": "nonpayable",
            "type": "function"
        },
        {
            "inputs": [
                {
                    "internalType": "address",
                    "name": "newOwner",
                    "type": "address"
                }
            ],
            "name": "transferOwnership",
            "outputs": [],
            "stateMutability": "nonpayable",
            "type": "function"
        }
    ],
    "bytecode": "0x608060405234801561001057600080fd5b5061002d61002261003260201b60201c565b61003a60201b60201c565b6100fe565b600033905090565b60008060009054906101000a900473ffffffffffffffffffffffffffffffffffffffff169050816000806101000a81548173ffffffffffffffffffffffffffffffffffffffff021916908373ffffffffffffffffffffffffffffffffffffffff1602179055508173ffffffffffffffffffffffffffffffffffffffff168173ffffffffffffffffffffffffffffffffffffffff167f8be0079c531659141344cd1fd0a4f28419497f9722a3daafe3b4186f6b6457e060405160405180910390a35050565b6113978061010d6000396000f3fe608060405234801561001057600080fd5b50600436106100a95760003560e01c8063715018a611610071578063715018a6146101545780638da5cb5b1461015e578063ac4bd53a1461017c578063c94ca9e31461019a578063e494a883146101b8578063f2fde38b146101d4576100a9565b80632d78d8e5146100ae57806337ad98ec146100cc57806359f78468146100fc57806369b36bd414610106578063713d87c514610124575b600080fd5b6100b66101f0565b6040516100c391906110b4565b60405180910390f35b6100e660048036038101906100e19190610c1c565b6101f5565b6040516100f39190610f8e565b60405180910390f35b61010461022b565b005b61010e6103a0565b60405161011b91906110b4565b60405180910390f35b61013e60048036038101906101399190610c9e565b6103a5565b60405161014b91906110b4565b60405180910390f35b61015c6103c5565b005b61016661044d565b6040516101739190610f73565b60405180910390f35b610184610476565b60405161019191906110b4565b60405180910390f35b6101a261054a565b6040516101af9190610f8e565b60405180910390f35b6101d260048036038101906101cd9190610c5d565b61055d565b005b6101ee60048036038101906101e99190610bf3565b6108bd565b005b600281565b6002818051602081018201805184825260208301602085012081835280955050505050506000915054906101000a900460ff1681565b6102336109b5565b73ffffffffffffffffffffffffffffffffffffffff1661025161044d565b73ffffffffffffffffffffffffffffffffffffffff16146102a7576040517f08c379a000000000000000000000000000000000000000000000000000000000815260040161029e90611079565b60405180910390fd5b6102f56040518060400160405280601681526020017f5553456c656374696f6e20656e6465643a202025732000000000000000000000815250600060149054906101000a900460ff166109bd565b600060149054906101000a900460ff1615610345576040517f08c379a000000000000000000000000000000000000000000000000000000000815260040161033c90610ff9565b60405180910390fd5b6001600060146101000a81548160ff0219169083151502179055507faacb23683ec1a0e9b52f9a6264edf58ad322ac62079d65ea7363a2d400f439f4610389610476565b6040516103969190611099565b60405180910390a1565b600181565b60016020528060005260406000206000915054906101000a900460ff1681565b6103cd6109b5565b73ffffffffffffffffffffffffffffffffffffffff166103eb61044d565b73ffffffffffffffffffffffffffffffffffffffff1614610441576040517f08c379a000000000000000000000000000000000000000000000000000000000815260040161043890611079565b60405180910390fd5b61044b6000610a59565b565b60008060009054906101000a900473ffffffffffffffffffffffffffffffffffffffff16905090565b600060016000600260ff1660ff16815260200190815260200160002060009054906101000a900460ff1660ff1660016000600160ff1660ff16815260200190815260200160002060009054906101000a900460ff1660ff1611156104dd5760019050610547565b60016000600160ff1660ff16815260200190815260200160002060009054906101000a900460ff1660ff1660016000600260ff1660ff16815260200190815260200160002060009054906101000a900460ff1660ff1611156105425760029050610547565b600090505b90565b600060149054906101000a900460ff1681565b6105656109b5565b73ffffffffffffffffffffffffffffffffffffffff1661058361044d565b73ffffffffffffffffffffffffffffffffffffffff16146105d9576040517f08c379a00000000000000000000000000000000000000000000000000000000081526004016105d090611079565b60405180910390fd5b6106276040518060400160405280601681526020017f5553456c656374696f6e20656e6465643a202025732000000000000000000000815250600060149054906101000a900460ff166109bd565b600060149054906101000a900460ff1615610677576040517f08c379a000000000000000000000000000000000000000000000000000000000815260040161066e90610ff9565b60405180910390fd5b600081606001602081019061068c9190610c9e565b60ff16116106cf576040517f08c379a00000000000000000000000000000000000000000000000000000000081526004016106c690611059565b60405180910390fd5b80604001358160200135141561071a576040517f08c379a000000000000000000000000000000000000000000000000000000000815260040161071190611039565b60405180910390fd5b600281806000019061072c919061110f565b60405161073a929190610f5a565b908152602001604051809103902060009054906101000a900460ff1615610796576040517f08c379a000000000000000000000000000000000000000000000000000000000815260040161078d90610fd9565b60405180910390fd5b60008160400135826020013511156107b157600190506107b6565b600290505b8160600160208101906107c99190610c9e565b600160008360ff1660ff16815260200190815260200160002060008282829054906101000a900460ff166107fd91906111ee565b92506101000a81548160ff021916908360ff16021790555060016002838060000190610829919061110f565b604051610837929190610f5a565b908152602001604051809103902060006101000a81548160ff0219169083151502179055507fa2e71fe38f1afa3762cf9d2ea7bb6a4d272a90fd6f9392f3acedd3b542046b46818360600160208101906108919190610c9e565b8480600001906108a1919061110f565b6040516108b194939291906110cf565b60405180910390a15050565b6108c56109b5565b73ffffffffffffffffffffffffffffffffffffffff166108e361044d565b73ffffffffffffffffffffffffffffffffffffffff1614610939576040517f08c379a000000000000000000000000000000000000000000000000000000000815260040161093090611079565b60405180910390fd5b600073ffffffffffffffffffffffffffffffffffffffff168173ffffffffffffffffffffffffffffffffffffffff1614156109a9576040517f08c379a00000000000000000000000000000000000000000000000000000000081526004016109a090611019565b60405180910390fd5b6109b281610a59565b50565b600033905090565b610a5582826040516024016109d3929190610fa9565b6040516020818303038152906040527fc3b55635000000000000000000000000000000000000000000000000000000007bffffffffffffffffffffffffffffffffffffffffffffffffffffffff19166020820180517bffffffffffffffffffffffffffffffffffffffffffffffffffffffff8381831617835250505050610b1d565b5050565b60008060009054906101000a900473ffffffffffffffffffffffffffffffffffffffff169050816000806101000a81548173ffffffffffffffffffffffffffffffffffffffff021916908373ffffffffffffffffffffffffffffffffffffffff1602179055508173ffffffffffffffffffffffffffffffffffffffff168173ffffffffffffffffffffffffffffffffffffffff167f8be0079c531659141344cd1fd0a4f28419497f9722a3daafe3b4186f6b6457e060405160405180910390a35050565b60008151905060006a636f6e736f6c652e6c6f679050602083016000808483855afa5050505050565b6000610b59610b5484611197565b611166565b905082815260208101848484011115610b7157600080fd5b610b7c848285611282565b509392505050565b600081359050610b9381611333565b92915050565b600082601f830112610baa57600080fd5b8135610bba848260208601610b46565b91505092915050565b600060808284031215610bd557600080fd5b81905092915050565b600081359050610bed8161134a565b92915050565b600060208284031215610c0557600080fd5b6000610c1384828501610b84565b91505092915050565b600060208284031215610c2e57600080fd5b600082013567ffffffffffffffff811115610c4857600080fd5b610c5484828501610b99565b91505092915050565b600060208284031215610c6f57600080fd5b600082013567ffffffffffffffff811115610c8957600080fd5b610c9584828501610bc3565b91505092915050565b600060208284031215610cb057600080fd5b6000610cbe84828501610bde565b91505092915050565b610cd081611225565b82525050565b610cdf81611237565b82525050565b6000610cf183856111d2565b9350610cfe838584611282565b610d0783611322565b840190509392505050565b6000610d1e83856111e3565b9350610d2b838584611282565b82840190509392505050565b6000610d42826111c7565b610d4c81856111d2565b9350610d5c818560208601611291565b610d6581611322565b840191505092915050565b6000610d7d6028836111d2565b91507f5468697320737461746520726573756c742077617320616c726561647920737560008301527f626d6974746564210000000000000000000000000000000000000000000000006020830152604082019050919050565b6000610de3601e836111d2565b91507f54686520656c656374696f6e2068617320656e64656420616c726561647900006000830152602082019050919050565b6000610e236026836111d2565b91507f4f776e61626c653a206e6577206f776e657220697320746865207a65726f206160008301527f64647265737300000000000000000000000000000000000000000000000000006020830152604082019050919050565b6000610e896015836111d2565b91507f54686572652063616e6e6f7420626520612074696500000000000000000000006000830152602082019050919050565b6000610ec96020836111d2565b91507f537461746573206d7573742068617665206174206c65617374203120736561746000830152602082019050919050565b6000610f096020836111d2565b91507f4f776e61626c653a2063616c6c6572206973206e6f7420746865206f776e65726000830152602082019050919050565b610f4581611270565b82525050565b610f5481611263565b82525050565b6000610f67828486610d12565b91508190509392505050565b6000602082019050610f886000830184610cc7565b92915050565b6000602082019050610fa36000830184610cd6565b92915050565b60006040820190508181036000830152610fc38185610d37565b9050610fd26020830184610cd6565b9392505050565b60006020820190508181036000830152610ff281610d70565b9050919050565b6000602082019050818103600083015261101281610dd6565b9050919050565b6000602082019050818103600083015261103281610e16565b9050919050565b6000602082019050818103600083015261105281610e7c565b9050919050565b6000602082019050818103600083015261107281610ebc565b9050919050565b6000602082019050818103600083015261109281610efc565b9050919050565b60006020820190506110ae6000830184610f3c565b92915050565b60006020820190506110c96000830184610f4b565b92915050565b60006060820190506110e46000830187610f4b565b6110f16020830186610f4b565b8181036040830152611104818486610ce5565b905095945050505050565b6000808335600160200384360303811261112857600080fd5b80840192508235915067ffffffffffffffff82111561114657600080fd5b60208301925060018202360383131561115e57600080fd5b509250929050565b6000604051905081810181811067ffffffffffffffff8211171561118d5761118c6112f3565b5b8060405250919050565b600067ffffffffffffffff8211156111b2576111b16112f3565b5b601f19601f8301169050602081019050919050565b600081519050919050565b600082825260208201905092915050565b600081905092915050565b60006111f982611263565b915061120483611263565b92508260ff0382111561121a576112196112c4565b5b828201905092915050565b600061123082611243565b9050919050565b60008115159050919050565b600073ffffffffffffffffffffffffffffffffffffffff82169050919050565b600060ff82169050919050565b600061127b82611263565b9050919050565b82818337600083830152505050565b60005b838110156112af578082015181840152602081019050611294565b838111156112be576000848401525b50505050565b7f4e487b7100000000000000000000000000000000000000000000000000000000600052601160045260246000fd5b7f4e487b7100000000000000000000000000000000000000000000000000000000600052604160045260246000fd5b6000601f19601f8301169050919050565b61133c81611225565b811461134757600080fd5b50565b61135381611263565b811461135e57600080fd5b5056fea26469706673582212200ff6b6516ad84fb95432d65efb25e023900b35fedbf9deb7c2dc610b3216914964736f6c63430008000033",
    "linkReferences": {},
    "deployedLinkReferences": {}
}